:020000040800F2
:10000000F00E002029020008FD4C0008F94300080A
:10001000214C00080D0D0008D55A00080000000012
:1000200000000000000000000000000075540008FF
:10003000E50E000800000000BD51000877540008DC
:10004000430200084302000843020008430200087C
:10005000430200084302000843020008430200086C
:10006000430200084302000843020008430200085C
:10007000430200084302000843020008430200084C
:10008000430200084302000843020008290D00084B
:10009000110D00081D0D000843020008430200086E
:1000A00043020008315500084302000843020008DB
:1000B0004302000843020008000000004302000859
:1000C0004302000800000000000000004302000896
:1000D0000000000043020008430200084302000839
:1000E0004302000843020008000000000000000076
:1000F0000000000000000000000000000000000000
:1001000000000000000000000000000000000000EF
:100110000000000000000000430200084302000845
:1001200000000000000000000000000000000000CF
:1001300000000000000000000000000000000000BF
:1001400043020008430200080000000043020008C8
:10015000430200084302000843020008430200086B
:1001600043020008430200080000000000000000F5
:10017000000000000000000000000000000000007F
:10018000000000004302000800F002F800F03CF814
:100190000AA090E8000C82448344AAF10107DA45E2
:1001A00001D100F031F8AFF2090EBAE80F0013F0F8
:1001B000010F18BFFB1A43F001031847D465000074
:1001C000F4650000103A24BF78C878C1FAD8520705
:1001D00024BF30C830C144BF04680C6070470000C1
:1001E0000023002400250026103A28BF78C1FBD840
:1001F000520728BF30C148BF0B6070471FB506F0DB
:10020000A0FA1FBD10B510BD00F0CFF81146FFF7E2
:10021000F5FF05F081FC00F0EDF803B4FFF7F2FF05
:1002200003BC00F0F5F80000094880470948004782
:10023000FEE7FEE7FEE7FEE7FEE7FEE7FEE7FEE796
:10024000FEE7FEE704480549054A064B70470000F3
:100250002155000889010008F0080020F00E002058
:10026000F00A0020F00A002053EA020C00F0698036
:100270002DE9F04B4FF00006002B1FBFB3FA83F5BA
:1002800003FA05F424FA05F65E4012BF1643B2FAEB
:1002900082F502FA05F4C5F120051EBF22FA05FC1D
:1002A00044EA0C04203556EA044C4FEA144418BFC3
:1002B000641C4FF000084FF00009904271EB030CF2
:1002C00039D3002919BFB1FA81F701FA07F6B0FA5C
:1002D00080F700FA07F6C7F120071EBF20FA07FCD7
:1002E00046EA0C062037B6FBF4FCA7EB0507103FE7
:1002F00007F01F0BCBF120060CFA0BFB2CFA06F6CD
:1003000044BFB3460026202FA4BF5E464FF0000B2B
:100310005BEA060C08BF4FF0010B19EB0B09ABFBB6
:10032000027C48EB0608C01B06FB02CC0BFB03CC8F
:1003300071EB0C01C1E70B46024641464846BDE859
:10034000F08B13B54FF000004FF00001AFF30080C9
:10035000BDE81C4070474FF0000200B513469446BC
:100360009646203922BFA0E80C50A0E80C50B1F10D
:100370002001BFF4F7AF090728BFA0E80C5048BF21
:100380000CC05DF804EB890028BF40F8042B08BFBF
:10039000704748BF20F8022B11F0804F18BF00F8BB
:1003A000012B7047704770477047754600F02CF876
:1003B000AE4605006946534620F00700854618B052
:1003C00020B5FFF73FFFBDE820404FF000064FF09B
:1003D00000074FF000084FF0000B21F00701AC467A
:1003E000ACE8C009ACE8C009ACE8C009ACE8C00999
:1003F0008D46704710B50446AFF300802046BDE837
:100400001040FFF70ABF0000004870479008002026
:1004100001491820ABBEFEE72600020070470246E5
:10042000406A016C11F0500F03D0806B016B1046D5
:100430000847016C41F4007101640168C96811F456
:10044000406F04BF417E00290BD1016C21F4807103
:100450000164016C11F4805F03D1016C41F0010172
:10046000016400F0F3BF406A016C41F04001016497
:10047000416C41F00401416400F0EABF406A00F0C1
:10048000E6BF70B504460068816801F003010129E8
:1004900030D1016811F0010F2CD0816801F00D01FD
:1004A000012918D1816841F002018160216803208F
:1004B000086001F0ADFF05462068806810F0010F6C
:1004C00018D001F0A5FF401B02280ED920688068D3
:1004D00010F0010F09D0206C40F010002064606C17
:1004E00040F001006064012070BD2068806810F059
:1004F000010FE6D1002070BD70B504460068816828
:1005000001F00301012903D1016811F0010F1ED18F
:1005100081686FF39E11E1B9816841F0010181604A
:1005200001F076FF05462068006810F0010F0ED13B
:1005300001F06EFF401B022804D92068006810F00B
:10054000010F06D02068006810F0010FF0D00020E5
:1005500070BD206C40F010002064606C40F0010021
:100560006064012070BD000010B504462DED068BBF
:1005700053EC112B9FED2E8B80EC080B51EC130BE1
:1005800005F084FF53EC182B05F03AFE04BFBDECD8
:10059000068B10BD94ED001B94ED040B53EC112B56
:1005A00051EC100B05F072FF53EC182B05F028FEF0
:1005B00004BFBDEC068B10BD94ED02AB94ED060BB1
:1005C00053EC1A2B51EC100B05F060FF94ED009BDF
:1005D00094ED040B41EC180B53EC192B51EC100B60
:1005E00005F054FF53EC182B05F0B2FC41EC180B4E
:1005F00051EC1A0B53EC182B05F03EFE53EC192B63
:1006000005F038FF41EC190B606C06F029F853EC4B
:10061000182B05F031FE05F0B5FB606451EC190BA9
:1006200005F0B0FB2064BDEC068B10BD000000009F
:1006300000000000000000002DE9F04FCB48CC4C3A
:10064000DFF83493B0F800B0A4F848B0A4F1800506
:100650004188B5F84A2004F180088B1AA5F8483083
:100660008088B8F84A1004F5C077421AC148A8F843
:10067000482004F58076B0F800A0A7F848A041888B
:10068000B6F84AC0A1EB0C01A6F84810B0F804C0B7
:1006900004F50070A0F848C099F8010004EB400E82
:1006A000AEF850B005EB400BABF8503008EB400310
:1006B000A3F8502007EB4002A2F850A006EB40023E
:1006C000A2F8501004F5007101EB4001401CC0B2CB
:1006D000A1F850C089F80100142838BFBDE8F08F98
:1006E000A648DFF89CB20188491C018001208BF8E4
:1006F0002F01002089F80100142104F1500005F0B9
:1007000015FB84ED1E0A142105F1500005F00EFBC7
:1007100085ED1E0A142108F1500005F007FB88ED55
:100720001E0A142107F1500005F000FB87ED1E0A98
:10073000142106F1500005F0F9FADFF848A286ED21
:100740001E0A14210AF1500005F0F0FA0AF18000A7
:100750008AED1E0A018C00EE901AF8EE600A9FEDF9
:100760008A1AA0F5407160EE810A80EE801A8AED47
:10077000131A95ED1E0ABCEEC00A10EE102A12B232
:1007800000EE102AA1F84820D1ED100AB8EEC00AF8
:1007900091ED111AA0F5207140EE010AC5ED130A82
:1007A00094ED1E0ABCEEC00A10EE102A12B200EE42
:1007B000902AA1F8482091ED100AF8EEE00A91ED98
:1007C000111A00EE810AD5ED130A9FED701AA0F5FB
:1007D0000071C0EE811A30EE210A84ED130A20EE7A
:1007E000800A80ED000A98ED1E0ABCEEC00A10EEE9
:1007F000102A12B200EE902AA1F8482091ED100ABA
:10080000F8EEE00AD1ED111AA0F5807200EEA10A0F
:1008100088ED130AC0EE011AD4ED130A30EEE11A86
:1008200089ED011A20EE011A80ED011AC0ED030ACC
:1008300095ED131A31EE400A80ED040A20EE801A7D
:1008400080ED051AD7ED1E0AFCEEE00A10EE901AB4
:1008500009B200EE901AA2F84810D2ED101AF8EE84
:10086000E00A92ED112A40EE821AC7ED131AD6ED76
:100870001E0AA0F5C072B5EEC00AFCEEE00A10EE4A
:10088000901A09B201EE901AA2F84810D2ED100A9F
:10089000F8EEE11A92ED112A41EE820AC6ED130A32
:1008A000D7ED131A21EEA02ADFED390AF1EE10FA86
:1008B00080ED022A06DD82EE010A20EE200A80ED9C
:1008C000060A05E081EE020A20EE200A80ED060A03
:1008D000BBF92611A1F50072723A04BF9FED2D0AF3
:1008E00080ED070A12D021EEA11A9FED2B2A2B4A88
:1008F00081EE020A20EE200A10EE101A80ED070A9F
:100900009142D8BFF0EE400AC0ED070A94ED131AE9
:10091000DBED3F0AB2EE042AC1EE812A80EE810AA5
:10092000FAEE000A22EE821A8BED400A8BED420AA3
:100930008BED4D2ACBED4F0A62EEA00AB4EEC10A50
:100940008BED4C1AF1EE10FACBED4E0AC8BFB0EEAB
:10095000410A8BED420AB4EEE00AF1EE10FAD8BF7C
:10096000B0EE600A8BED420ABDE8F08F2C0000204B
:100970006004002032000020240000201400002029
:100980004C070020600600203333534000007A43B8
:100990000000C84200000000A4340E440000C84219
:1009A000374810B5B2EE0E0A80ED3F0A00213548F7
:1009B00000F0A0FA0021344800F09CFA03223349E9
:1009C000304800F0F1FE032231492F4800F0ECFEE0
:1009D00031499FED300A01F18000DFED300A81EDF1
:1009E000110AC0ED110A00F1800200F5807382ED5A
:1009F000110A00F5C07083ED110AC0ED110A4FF421
:100A00000060A1F84A00A2F84A00A3F84A0024486E
:100A10000078022828BF10BDDFE800F02F019FED0D
:100A2000223B9FED232B9FED241B9FED250B26489A
:100A3000FFF79AFD9FED263B9FED272B9FED281B8F
:100A40009FED290B1448FFF78FFD9FED293B9FED8C
:100A50002A2B9FED2B1B9FED2C0B2D48FFF784FDC0
:100A6000BDE810409FED2C3B9FED2D2B9FED2E1BE5
:100A70009FED2F0B3048FFF777BD10BD0000000041
:100A80004C07002040000020900000202C00002097
:100A9000320000206740533BE00300206740533C96
:100AA00024000020000000000AD7A3703D8A3540D2
:100AB00000000000000036400000000000803740C9
:100AC000000000000000384060040020000000002A
:100AD00014AE47E17A1414409A999999999914405F
:100AE0007B14AE47E17AF03F48E17A14AE47F13F1C
:100AF000666666666666EE3F000000000000F03F36
:100B0000C3F5285C8FC213400000000000001440B1
:100B1000E004002000000000000000000000304061
:100B2000000000E07A5430400000000000803540B2
:100B30000000006066E63540E005002009B200EEE6
:100B4000901AA0F8481090ED100AF8EEE00A90ED27
:100B5000111A00EE810A70472D489FED2E0A2F4A88
:100B6000D0ED130A2C482E4960EE800AFDEEE00A13
:100B7000C0ED000AD2ED130A60EE800AFDEEE00A35
:100B8000C0ED010AD1ED000A60EE800AFDEEE00A38
:100B9000C0ED020AD2ED1E0A224AFDEEE00AC0EDC7
:100BA000030AD2ED130A204A60EE800AFDEEE00A45
:100BB000C0ED040AD2ED130A1C4A60EE800AFDEE75
:100BC000E00AC0ED050AD1ED050A60EE800AFDEEEF
:100BD000E00AC0ED060AD2ED130A60EE800AFDEECF
:100BE000E00AC0ED070AD1ED010A114960EE800A62
:100BF000FDEEE00AC0ED080AD1ED3F0A0A2120EE21
:100C0000800ABDEEC00A80ED090A00F093B800002A
:100C1000600400200000C84204070020E003002018
:100C2000E0060020E005002060050020E004002030
:100C30004C0700201E4A1F481F4992ED060ADFEDAF
:100C40001F0A1F4BBDEEC00A80ED000A91ED420A5B
:100C500020EE200ABDEEC00A80ED010A1B68836009
:100C6000B1F92831C360174BDFED170A93ED130A72
:100C700020EE200ABDEEC00A80ED040A138C436109
:100C800091ED200ABDEEC00A80ED060A91ED350A0D
:100C9000BDEEC00A80ED070A91F82411016292EDC1
:100CA000070A0A21BDEEC00A80ED090A00F0AEB8BD
:100CB000E0060020040700204C0700200000C84286
:100CC000247401406006002000007A4410B58AB008
:100CD000002001210090019002900390CDE90510C1
:100CE00004900E200891079109906946064800F08B
:100CF00077FE0446044801F0BDF90321024800F0E4
:100D0000E5FD0AB0204610BD68010020FEE70000A6
:100D1000014800F091BF000068010020014800F088
:100D20008BBF000068010020014800F085BF000073
:100D3000680100202DE9F0418CB0AA228DF8002036
:100D4000FF228DF80120F1228DF802204A004FF099
:100D5000000C4C1E66468DF80320E846002C1DDD75
:100D6000031F08F1020211F0010F08D113F8045F0C
:100D70008DF804501D882D0A8DF80550921C5D6871
:100D800064100BD033F8087F95702D0AD5705D681C
:100D900002F8047F3F0A5770641EF3D14A1E08D43C
:100DA00008EB420310F822401C7130F82200000AC0
:100DB00058710023042000EB4100A8F10102C0F3A8
:100DC000470078B15478401EA44406EB0C04E6B208
:100DD00012F8024F10F0FF00A4440CF0FF0C634423
:100DE000DBB2EFD108EB4102F01882F804C0507179
:100DF000062000EB410264234146034803F020FA39
:100E00000CB0BDE8F0810000580300202DE9F0414E
:100E10008CB0AA228DF80020FF228DF80120F2224A
:100E20008DF802204A004FF0000C4C1E66468DF8EB
:100E30000320E846002C1DDD031F08F1020211F01B
:100E4000010F08D113F8045F8DF804501D882D0A96
:100E50008DF80550921C5D6864100BD033F8087F44
:100E600095702D0AD5705D6802F8047F3F0A5770AF
:100E7000641EF3D14A1E08D408EB420310F8224046
:100E80001C7130F82200000A58710023042000EB86
:100E90004100A8F10102C0F3470078B15478401E28
:100EA000A44406EB0C04E6B212F8024F10F0FF0067
:100EB000A4440CF0FF0C6344DBB2EFD108EB410219
:100EC000F01882F804C05071062000EB4102642340
:100ED0004146034803F0B4F90CB0BDE8F0810000CE
:100EE000580300207047000072B600BF03F0AEFA4E
:100EF000FCE700002DE9F041044690F83C000D4667
:100F0000012804BF0220BDE8F0814FF0010884F8F9
:100F10003C802046FFF7B5FA06004FF000073BD1B2
:100F2000C4F840802068816821F080418160012DF3
:100F300004D12068816841F0804181602068816827
:100F400041F00041816001F063FA05462068806845
:100F500010F0004F1AD000BF01F05AFA401B0A28C7
:100F60000FD92068806810F0004F0AD0206C20F064
:100F7000020040F01000206484F83C700120BDE8BD
:100F8000F0812068806810F0004FE5D1206C20F0DF
:100F9000020040F00100206484F83C703046BDE857
:100FA000F081000010B40268002395B0B2F1A04FA8
:100FB0000CBFDFF810C14FF0A04CCDF800C090F886
:100FC0003CC0BCF1010F01BF022015B010BC70473E
:100FD0004FF0010C80F83CC0926812F0040F04D16D
:100FE000009A926812F0040F0BD0016C41F02001BE
:100FF00001640123002180F83C1015B0184610BC94
:101000007047D1F800C0304ABCF1000F37D0D2F899
:1010100008C090F830402CF4604C4CEA443C4C68DA
:101020004CEA040CC2F808C0D0F800C0DCF8084054
:1010300004F00304012C04D1DCF800C01CF0010F03
:10104000D8D1DDF800C0DCF808C00CF0030CBCF10E
:10105000010F06D1DDF800C0DCF800C01CF0010F64
:10106000C8D1D1F800C089684CEA0101D2F808C0A3
:101070002CF01F0C2CF4706C41EA0C011FE09168FD
:1010800021F4604191600168D1F808C00CF0030CB4
:10109000BCF1010F03D1096811F0010FAAD1009929
:1010A000896801F00301012904D10099096811F050
:1010B000010F9FD1916821F01F0121F470619160AF
:1010C00098E7000000010050000300502DE9F001F6
:1010D00099B04FF0000CCDF808C090F83C20644661
:1010E000012A01BF022019B0BDE8F00170470127B5
:1010F00080F83C700268936813F0040F40F04A8156
:101100004B681F25052B0CD2166B03EB43035B00CA
:101110009D4026EA05050E6806FA03F32B43136388
:101120002CE00A2B0DD2566B5B1F03EB43035B00D5
:101130009D4026EA05050E6806FA03F32B43536328
:101140001CE00F2B0DD2966B0A3B03EB43035B00B5
:101150009D4026EA05050E6806FA03F32B439363C8
:101160000CE0D66B0F3B03EB43035B009D4026EA8C
:1011700005050E6806FA03F32B43D36302689368F0
:101180004FF0070513F00C0F64D10B680A2B0ED338
:1011900096690A3B03EB430305FA03F826EA0806BF
:1011A000D1F8088008FA03F3334393610CE05669E1
:1011B00003EB430305FA03F826EA0806D1F8088092
:1011C00008FA03F33343536102684B69D668D1F8D8
:1011D0001080C6F3C1067600B340974EB8F1010FF8
:1011E0003FD0B8F1020F49D0B8F1030F53D0B8F196
:1011F000040F5DD0136E0E7803F0F843B3EB866FE7
:1012000003D1136E23F0004313660268536E0E7809
:1012100003F0F843B3EB866F03D1536E23F0004322
:1012200053660268936E0E7803F0F843B3EB866F53
:1012300003D1936E23F0004393660268D36E0E7859
:1012400003F0F843B3EB866F04BFD36E23F0004383
:1012500000D1D3660268936803F00303012B37D1F2
:1012600032E0D2F8608008EA060691F8008043EA8E
:101270008863334343F000431366EBE7D2F864809E
:1012800008EA060691F8008043EA8863334343F096
:1012900000435366DEE7D2F8688008EA060691F854
:1012A000008043EA8863334343F000439366D1E709
:1012B000D2F86C8008EA060691F8008043EA886359
:1012C000334343F00043C4E7136813F0010F67D1C1
:1012D000CB68012BD2F8B03006D00D7807FA05F5AF
:1012E000AB43C2F8B03022E00E7807FA06F633437B
:1012F000C2F8B0300A6803680A2A0CD39E69093A1A
:1013000002EB4202954026EA05058E6806FA02F2D3
:101310002A439A610BE05E69521C02EB420295403F
:1013200026EA05058E6806FA02F22A435A61096820
:10133000424A102908D011290BD0122904BF936802
:1013400013F4800F09D02BE0936813F4000F27D11A
:1013500003E0936813F0807F22D10368B3F1A04FBC
:101360000CBF374D4FF0A04504959D6805F003056F
:10137000012D03D11D6815F0010F0BD1049DB5B1EE
:10138000AD6805F00305012D11D1049D2D6815F000
:10139000010F0CD0016C41F0200101644FF0010CF1
:1013A00080F83C4019B06046BDE8F0017047102954
:1013B00009D0112933D0122904BF916841F480016A
:1013C000EED19160ECE7B3F1A04FE9D1916841F41F
:1013D000000191601B491C4A0968B1FBF2F101EB65
:1013E0008101490002910091DAD0B1F1004F1ED283
:1013F0000029D8BF002105DD11F0010102D0029AB9
:10140000521E0292009A491C531C9942C8DA029A51
:10141000891C521E521E02929942F8DBC0E7B3F1BA
:10142000A04F04BF916841F08071B9D1C9E702991A
:10143000491E0291FCD1B3E700F0FF830003005086
:10144000000100500C00002040420F007047704720
:101450007047000070B594B04FF0000604003546A8
:10146000029602BF012014B070BD206C10F0100F66
:10147000206C03D010F0100F69D06DE000284BD124
:101480006564E564A56484F83C50204600F000F9EA
:101490002068806810F0805F3ED12046FEF7F1FFA3
:1014A0000646206C10F0100F08BF002E34D1206CBF
:1014B00020F4885040F0020020642068816821F008
:1014C000405181602068816841F0805181606A48A4
:1014D0006A490068B0FBF1F000EB80004000029028
:1014E000009019D0B0F1004F80F0C0800028D8BF24
:1014F000002005DD10F0010002D00299491E029182
:101500000099401C491C884206DA029A801C521E2F
:10151000521E02928842F8DB2068816811F0805FD9
:1015200003D0806810F0005F0BD0206C20F0020028
:1015300040F010002064606C40F001006064206C9A
:101540000AE0206C10F0100F08BF002E04D12068B4
:10155000816811F0040F0AD0206C20F0020040F0E6
:10156000100020644FF0010614B0304670BD216CAD
:1015700021F4807141F0020121644149B0F1A04F92
:1015800014BF4FF0A0423F4A0092826802F003026B
:10159000012A03D1006810F0010F11D1009848B161
:1015A000806800F00300012804D10098006810F062
:1015B000010F05D18868626820F4403010438860CC
:1015C000D4E902100843616B012914BF4FF4805223
:1015D0000022617E42EA4132104394F82020012A21
:1015E0000AD1A9B1216C21F0020141F0200121644E
:1015F000616C41F001016164A16A012902D0E26AD3
:101600001143084321688A6812F00C0F15D107E0D6
:10161000A18C1D4A02EB4141084340F48030EBE7C6
:10162000CA6822F0020222F48042CA60217E94F845
:101630003020890341EA420108432168CA68134BFC
:101640001A401043C860206901282068016B21F00E
:101650000F0102D1E269521E114301636564206CDF
:1016600020F0020040F0010020647DE70298401E57
:101670000290FCD150E700000C00002040420F0017
:1016800000030050000100500000FEFF07C0F0FF03
:101690002DE9F04786B000253C4A0095019502955A
:1016A000039504950646D0F800C0106803238027F0
:1016B0003749401C4FF480784FF480694FF0200A7E
:1016C000BCF1A04F0BD0ACF1A044B4F580741CBFAA
:1016D00006B0BDE8F0871060012837D12EE0106019
:1016E000012807D1486940F080504861486900F0FE
:1016F00080500590486940F4003048614869694667
:1017000000F4003005900720CDE900034FF0904031
:1017100000F08AFD204C1F4804F10802C4E90005CE
:101720008014C4E906A082E8A003204600F0DCFC97
:1017300048BBB463666206B0BDE8F087486940F014
:1017400080504861486900F080500590486940F435
:10175000802048614869694600F4802005904FF474
:101760004040CDE900030D4800F05EFD0D4C0C48F3
:10177000E4E802050B48A4E8A00744F81C5900F06F
:10178000B3FC0028D5D0FFF7AFFBD2E71000002054
:101790000010024008000240E00000200004004861
:1017A0001C000240240100202DE9F0470446006897
:1017B00090468946806810F0040F18BF022502D0B9
:1017C0002846BDE8F08794F83C00012804BF0220B9
:1017D000BDE8F08701204FF0A04784F83C00D7F81F
:1017E00008034FF0000610F01F0F1CBF012584F8FE
:1017F0003C60E5D12046FEF77FFE050018BF84F867
:101800003C60DDD1206C20F0010020F4606040F4E9
:1018100080702064D7F8080310F01F0F1CBF2068E9
:10182000B0F1A04F42D0216C41F480112164A0F1AD
:10183000A041B1F5807109D1F86810F0007F05D0A2
:10184000206C20F4005040F480502064206C10F490
:10185000805F08BF666403D0606C20F0060060649F
:1018600084F83C60A16B16488862A16B1548C86279
:10187000A16B1548086321681C2008602068416836
:1018800041F0100141602068C16841F00101C16070
:101890002068434600F140014A46A06B00F064FC1A
:1018A0002068816841F00401816089E7206C20F4A0
:1018B000801020642068C06810F0007FC0D1C5E7A8
:1018C0001F0400087D0400086704000890F8202029
:1018D000012A18BF022A06D0416A41F480214162E0
:1018E0004FF0010070470068426942EA010141611E
:1018F0004FF00000704770B490F82040D0F800C05E
:10190000DCF808C0012C18BF022C07D0416A41F452
:101910008021416270BC4FF0010070471CF0E05F15
:1019200057D0CCF3016C4FF0010404FA0CF41C60A6
:101930008C684FF4C073A4B1CD6803EB0C1644EA75
:1019400005044D6844EAC5040568AC514FF4C274FF
:10195000066804EB0C140D693551097D01290ED17F
:1019600008E00D88CC6803EB0C1644EA4554056882
:10197000AC51EBE701680D5945F480750D511179B3
:10198000D479557941EA04619479240444EA052420
:1019900021434FF4C675046805EB0C1561511178AD
:1019A000D47841EA046194785278240444EA02220B
:1019B00011434FF4C474026804EB0C141151006815
:1019C00003EB0C11425842F00102425070BC00205F
:1019D0007047416A41F40011416270BC01207047B8
:1019E00090F820300268012B18BF022B06D0416A04
:1019F00041F4802141624FF001007047D2F80002AB
:101A000040F00100C2F80002087D4FF0010300F031
:101A10001F0003FA00F0D2F81C3223EA0003C2F8D8
:101A20001C32CB69DBB9D2F80C3223EA0003C2F8CE
:101A30000C32B1F80CC04B686CF31F43D1F814C0E2
:101A400002EBCC0CCCF84032B1F808C00B686CF358
:101A50001F43D1F814C002EBCC0CCCF84432CB6954
:101A6000012B1AD1D2F80C320343C2F80C32B1F870
:101A700000C04B686CF31F43D1F814C002EBCC0CD0
:101A8000CCF84032B1F808C0CB686CF31F43D1F8F2
:101A900014C002EBCC0CCCF844328B69002BD2F88A
:101AA00004320CBF83430343C2F804320B69002B9A
:101AB000D2F814320CBF83430343C2F81432096ACC
:101AC000012904D1D2F81C120843C2F81C02D2F832
:101AD000000220F00100C2F80002002070477047A9
:101AE00030B490F820C0BCF1010F18BFBCF1020F58
:101AF00007D0416A41F48021416230BC4FF00100BF
:101B00007047D0F800C029B1DCF810C01CF0030FFA
:101B10007ED004E0DCF80CC01CF0030F78D04FF44A
:101B2000D87C04680CEB011C54F80C4014F004043D
:101B30009460046854F80C4007BF640D1460E40816
:101B40005460046854F80CC00CF0020CC2F80CC0CD
:101B50004FF4DA7C04680CEB011C54F80C5005F0CF
:101B60000F05082D2EBF082454F80C4004F00F0474
:101B70001461046854F80C40C4F3072494610468A9
:101B800054F80CC04FEA1C4CC2F814C04FF4DC727D
:101B9000D0F800C002EB01125CF802C083F800C06C
:101BA000D0F800C05CF802C04FEA1C2C83F801C0DA
:101BB000D0F800C05CF802C04FEA1C4C83F802C0A9
:101BC000D0F800C05CF80220120EDA704FF4DE721A
:101BD000D0F800C002EB01125CF802C083F804C028
:101BE000D0F800C05CF802C04FEA1C2C83F805C096
:101BF000D0F800C05CF802C04FEA1C4C83F806C065
:101C0000D0F800C05CF80220120EDA71002900E062
:101C10000BE000680CBFC168016941F020010CBFF6
:101C2000C1600161002030BC7047416A41F400117D
:101C3000416230BC012070472DE9F05F0546006825
:101C400000244669D0F804908768D0F80CB0D0F82A
:101C500010A0D0F8188016F0010F25D017F0010F52
:101C600007D00121816017F0020F7CD0284600F0D8
:101C700034FA17F4807F09D029684FF480708860A7
:101C800017F4007F70D0284600F029FA17F4803F3F
:101C90000AD029684FF48030886017F4003F00F0C4
:101CA000B980284600F01DFA16F0080F18BF1BF087
:101CB000100F04D02968102044F40074C86016F096
:101CC000040F4FF0080718BF1BF0080F04D0286856
:101CD000C760284600F0AEF916F0020F07D028685A
:101CE000C06810F0030F1CBF284600F0A5F916F0DD
:101CF000400F18BF1AF0100F04D02968102044F4C8
:101D00008064086116F0200F18BF1AF0080F04D085
:101D100028680761284600F0A9F916F0100F07D0CF
:101D20002868006910F0030F1CBF284600F09FF9D7
:101D300016F4003F18BF19F0100F05D029681020C5
:101D40004860284600F094F916F4803F18BF19F057
:101D5000080F04D028684760284600F0C3F916F43D
:101D6000004F78D001E035E044E019F0040F6FD067
:101D700016F4807F1CBF18F0010F44F0010416F424
:101D8000007F1CBF18F0020F44F0020416F4806FAD
:101D90001CBF18F0040F44F0040416F4006F18BFC1
:101DA00018F0700F54D008F07000402808BF44F0BD
:101DB000400448D03EDC102808BF44F0080442D05C
:101DC000202808BF44F010043DD0302808BF44F05C
:101DD000200438E017F0040F18BF4FF400647FF4BC
:101DE00048AF17F0080F0ABF28464FF4805400F0A0
:101DF00073F93EE717F4806F18BF44F400547FF482
:101E000045AF17F4006F0ABF284644F4804400F041
:101E100065F93BE717F4802F18BF44F400447FF4C2
:101E200043AF17F4002F0ABF284644F4803400F073
:101E300057F939E7502808BF44F0800403D06028E0
:101E400008BF44F480742868816921F070018161C1
:101E5000296804204860002C08BFBDE8F09F686A2C
:101E6000204368622846FFF73AFEBDE8F09F000075
:101E7000002804BF0120704770B5044690F8200088
:101E8000002804BF204600F089F82068016841F06E
:101E90000101016000F0BCFA0546206840684FF07F
:101EA000050610F0010F09D100F0B2FA401B0A2814
:101EB00017D82068406810F0010FF5D0206801683D
:101EC00021F00201016000F0A3FA05462068406895
:101ED00010F0020F12D000BF00F09AFA401B0A283F
:101EE00007D9606A40F40030606284F82060012005
:101EF00070BD2068406810F0020FEDD1207E0128EF
:101F0000206801680CBF41F0800121F08001016070
:101F1000607E0128206801680CBF41F0400121F07B
:101F200040010160A07E0128206801680CBF41F0DB
:101F3000200121F020010160E07E01282068016875
:101F40000CBF21F0100141F010010160207F012839
:101F5000206801680CBF41F0080121F00801016010
:101F6000607F0128206801680CBF41F0040121F066
:101F700004010160D4E902010843D4E904121143C9
:101F800008436168491E08432168C86100206062F7
:101F9000012084F82000002070BD000000B587B04B
:101FA0000021009101910291039104910068A0F138
:101FB0008041B1F5C8411CBF07B000BD1B48C169D5
:101FC00041F00071C161C16901F000710591416981
:101FD00041F4802141614069694600F48020059008
:101FE0004FF44070009002200190032003900920DC
:101FF00004900F4800F018F900221146132000F059
:1020000033FF132000F020FF00221146142000F0BF
:102010002BFF142000F018FF00221146152000F0BD
:1020200023FF152000F010FF07B000BD0010024094
:10203000000400487047000000B58BB000200890F5
:102040000146099008AB6A460648FFF749FD00982B
:1020500066281CBF0BB000BD03480899C0F8FC10EF
:102060000BB000BD680100204C070020704770478E
:102070007047000070B5044690F82000012804D095
:10208000606A40F4002060621CE0022084F82000B6
:102090002068016821F00101016000F0B9F90546EE
:1020A0002068406810F0010F13D000BF00F0B0F9B5
:1020B000401B0A2808D9606A40F40030606205209D
:1020C00084F82000012070BD2068406810F0010FE6
:1020D000ECD10020606270BD704770477047704758
:1020E0007047704770470000002804BF0120704708
:1020F00010B4022180F8211002681168D0E9013C77
:1021000043EA0C03D0E903C44CEA040C43EA0C0391
:10211000D0F814C06FF30D1143EA0C03D0F818C0C7
:1021200043EA0C03D0F81CC043EA0C0319431160C6
:102130000A4A016811440A4AA2FB012109098900DF
:1021400001640849C16300218163012280F82120D4
:1021500080F8201010BC084670470000F8FFFDBF53
:10216000CDCCCCCC0000024070B490F820404FF0B1
:10217000000C012C02BF022070BC7047012480F8C3
:10218000204090F821600025012E1CBF80F82050CF
:102190004FF0020C02D070BC60467047022680F8F7
:1021A0002160856305682E6826F001062E6090F890
:1021B0004050AC40C56B6C60046863604368102B92
:1021C000036803BF9A600268D16099601CBF016810
:1021D000CA60C16A002901680A6818BF42F00E028D
:1021E00006D142F00A020A6001680A6822F004027D
:1021F0000A600068016841F001010160CBE700005E
:1022000070B5044600F004F90546B4F1FF3F02D072
:1022100004480078044400F0FBF8401BA042FAD3C5
:1022200070BD0000000000200B680022002B08BFDA
:1022300070472DE9F84F6A4D684C4FF001094FF097
:10224000030C4FF00F0A05F1040E00BF0B6809FAEA
:1022500002F633407ED00F7907F00307012F18BF35
:10226000022F19D1D0F808804FEA42070CFA07FB79
:1022700028EA0B08D1F80CB00BFA07F747EA080771
:102280008760476827EA06060F79C7F3001707FA41
:1022900002F747EA060646604E683CEA06060BD09F
:1022A000C76856000CFA06F827EA0807D1F8088034
:1022B00008FA06F63E43C6600E7906F00306022EC3
:1022C00011D1D60800EB8607D7F820805607F60E06
:1022D0000AFA06FB28EA0B08D1F810B00BFA06F64A
:1022E00046EA08063E62076856000CFA06F827EA36
:1022F000080791F8048008F0030808FA06F63E4340
:1023000006604E6816F4403F61D0A66946F00106AB
:10231000A661A66906F00106009622F0030606F102
:10232000804707F58037D7F808809607360F0AFAF6
:1023300006FB28EA0B0BB0F1904F08BF4FF00008E6
:102340001AD0A0F19048B8F5806808BF4FF0010896
:1023500012D000E03BE0A0F19048B8F5006808BF5B
:102360004FF0020808D0A0F19048B8F540680CBFC3
:102370004FF003084FF0050808FA06F646EA0B0688
:10238000BE602E684F689E4317F4801F18BF1E431F
:102390002E60DEF800604F689E4317F4001F18BFE0
:1023A0001E43CEF800600F4F3E68D1F804809E4374
:1023B00018F4003F18BF1E433E600B4F3E68D1F833
:1023C00004809E4318F4803F18BF1E433E600B6894
:1023D000521CD3407FF43AAFBDE8F88F00100240A2
:1023E0000804014004040140000401400069084061
:1023F00018BF01207047426921EA0203114043EAF5
:10240000014181617047002A14BF81618162704778
:1024100001488068704700000000002090F8C0204C
:10242000012A04BF02207047012280F8C020022345
:1024300080F8C130B1F1FF3F1AD00368D3F8CCC3A4
:102440004CF0020CC3F8CCC30368D3F8CCC32CF017
:102450000C0C4CEA0101C3F8CC130168D1F8CC3361
:1024600043F00103C1F8CC3380F8C120002070474D
:102470000168D1F8CC3323F00203C1F8CC330168F2
:10248000D1F8CC3343F00103C1F8CC33ECE70000C2
:1024900090F8C130022B19BF90F8C030012B0220F8
:1024A000704730B4012380F8C0304FF0020C80F840
:1024B000C1C0B2F800C094880CF4E05CC4F3080416
:1024C00044EA0C0C14896FF07E4504F4007444EA6D
:1024D0000C0C148A04F4804444EA0C0C948904F42F
:1024E000004444EA0C0C948A05EA044444EA0C0CC7
:1024F000946904F0007444EA0C0C146AD26904F084
:10250000804444EA0C0C02F0004242EA0C02B82477
:10251000D0F800C004EBC1115CF80140064D2C401E
:1025200022434CF8012080F8C130002180F8C0100F
:1025300030BC0846704700000020003C002804BF63
:102540000120704738B50446022084F8C1000025F8
:10255000C4F8C450C4F8C850C4F8CC50C4F8D05023
:10256000C4F8D450C4F8D850207A10F0010F1DD010
:102570002068A0F18041B1F5BA3108D11F488169C6
:1025800041F000518161806900F0005000902068A6
:102590000168228A21F4404102F440421143A28A98
:1025A00021F4405102F4405211430160204600F0F2
:1025B00027F8207A10F0020F08D020680168A2895D
:1025C00021F4407102F4407211430160012084F84B
:1025D000C100002184F8C0505FF00602C1EBC100C9
:1025E00004EB8000491C8561C56105624562856216
:1025F0000563521EF2D1002038BD000000100240D9
:10260000006881B0A0F18041B1F5BA311CBF01B0C2
:1026100070470548816941F000518161806900F08F
:102620000050009001B070470010024070B50D4698
:102630000446FFF7EDFE06462068D0F8880310F444
:10264000803F0ED1B5F1FF3F05D0FFF7E1FE801BC3
:10265000A8420DD865B12068D0F8880310F4803FF7
:10266000F0D0012084F8C100002084F8C00070BDC3
:10267000072084F8C100032070BD30B490F8C13049
:10268000022B02BF022030BC7047022380F8C13009
:10269000052925D08023D0F800C003EBC1135CF8D6
:1026A0000340956824F007042C43D56824F01804EF
:1026B0002C434CF803409424D0F800C004EBC11420
:1026C00013684CF804304FF0980C03680CEBC11100
:1026D00052685A50012180F8C11030BC0020704768
:1026E00001680B68D2F808C023F007034CEA030323
:1026F000D2F80CC023F018034CEA03030B60036804
:1027000011685961516802689161E3E790F8C1C0AE
:10271000BCF1020F19BF90F8C0C0BCF1010F02203C
:1027200070472DE9F003012780F8C0704FF0020CCC
:1027300080F8C1C000264FF0070805291DD04FF0D2
:102740009C0C0CEBC115012A40D0A8244FF0800C42
:1027500004EBC1140CEBC11C022A3BD0042A5DD04F
:10276000082A1CBF80F8C18080F8C0605AD000BF22
:1027700090F8C11007297CD010E0012A16D0022A57
:1027800018D0042A1AD0082A1CBF80F8C18080F80B
:10279000C06017D090F8C110072972D080F8C170BE
:1027A00080F8C060BDE8F003002070470268196837
:1027B000D161EFE7026819685162EBE702681968B6
:1027C0009162E7E702681968D162E3E70268196875
:1027D0005151CDE74FF0A409D0F8008009EBC111A9
:1027E0001A6848F8012059680029016851F80C203E
:1027F00022F4405242D041F80C20016851F80C20DC
:10280000D3F8048042EA080241F80C205968B1F577
:10281000005F2FD0B1F5405F27D0A9E702681968A3
:102820001151A5E74FF0AC09D0F8008009EBC111B8
:102830001A6848F8012059680029016851F80C20ED
:1028400022F440421AD041F80C20016851F80C20C3
:10285000D3F8048042EA880241F80C205968B1F5A7
:10286000005F07D0B1F5405F82D1026899681151CD
:102870007EE706E002689968515179E741F80C203B
:1028800076E7BDE8F0030120704790F8C020012AE8
:1028900004BF02207047012280F8C020022380F884
:1028A000C1300368D3F800C04CEA0101196080F818
:1028B000C120002180F8C0100846704770B504465A
:1028C00090F8C100022808BF70BD94F8C00001282C
:1028D00004BF022070BD012584F8C050022084F896
:1028E000C100204601F016FD84F8C150002084F894
:1028F000C00070BD90F8C020012A04BF02207047BC
:10290000012280F8C020022380F8C1300368D3F888
:1029100094C34CEA0101C3F8941380F8C12000214C
:1029200080F8C0100846704790F8C020012A04BF04
:1029300002207047012280F8C020022380F8C130B5
:102940000368D3F898C34CEA0101C3F8981380F8E0
:10295000C120002180F8C010084670472DE9F04FD3
:1029600090F8C130022B19BF90F8C030012B022023
:10297000BDE8F08F4FF0010380F8C0304FF0020344
:1029800080F8C1300368052965D04FF0800C0CEB4E
:10299000C11553F805C02CF0704C43F805C004680D
:1029A0006659E82303EBC11B54F80B90E42303EBB7
:1029B000C11754F807C0D4F8A033D2F8148026F019
:1029C000200648EA0606D2F8188026F4006648EA8F
:1029D0000606D2F81C8026F4806648EA0606D2F87D
:1029E000208026F0C06648EA0606D2F8248026F049
:1029F000006648EA0606D2F8288026F0704648EAC3
:102A00000606D2F8308026F40036B8F1005F08BF21
:102A100046F4003626F04008566BD2F850A046EA3D
:102A2000080828F480284AEA0808D2F848A028F0C4
:102A3000FC784AEA080892F838A029F01F090AF041
:102A40001F0A4AEA0909D2F83CA029F000494AEADB
:102A5000090986BB29E01C68D3F8A0C3556924F096
:102A600020042C43956924F400642C43D56924F494
:102A700080642C43156A24F0C0642C43556A24F00A
:102A800000642C43956A24F0404444EA8504156BA5
:102A900024F000542C43D56A2CF4803C45EA0C0CFD
:102AA0001C600368C3F8A0C34FE0D2F840A02CF428
:102AB000807C4AEA0C0CD2F844A0BAF5606F18BFCB
:102AC000BAF5F05F01D1402E03D12CF4F05C4AEA54
:102AD0000C0CD66C052926D2DFE801F0030A111888
:102AE0001F00D2F82CA023F4003343EA4A031AE073
:102AF000D2F82CA023F4802343EA8A0313E0D2F80F
:102B00002CA023F4002343EACA030CE0D2F82CA043
:102B100023F4801343EA0A1305E0D2F82CA023F42F
:102B2000001343EA4A1344F80580046844F80B9004
:102B3000046844F807C0D425046805EBC11C44F8B8
:102B40000C60D0F800C0CCF8A033C1EBC10300EB9F
:102B50008303D2F800C0C3F820C0D2F804C0C3F881
:102B600024C0D2F808C0C3F828C0D2F80CC0C3F8FB
:102B70002CC012691A63062911D2DFE801F0091985
:102B80001F252B030168D1F8842342F0010204E0E1
:102B90000168D1F8842342F00202C1F884230121A4
:102BA00080F8C110002180F8C0100846BDE8F08F01
:102BB0000168D1F8842342F00402EEE70168D1F8FD
:102BC000842342F00802E8E70168D1F8842342F048
:102BD0001002E2E70168D1F8842342F02002DCE72A
:102BE00090F84120202A24D190F84020012A20D0BA
:102BF000012280F84020242280F8412002681368D6
:102C000023F0010313600268136823F480531360F8
:102C1000026813681943116001680A6842F00102F2
:102C20000A60202180F84110002180F840100846F9
:102C300070470220704790F84120202A22D190F856
:102C40004020012A1ED0012280F84020242280F852
:102C500041200268136823F00103136002681368BF
:102C600023F4706343EA0121116001680A6842F0AD
:102C700001020A60202180F84110002180F84010F4
:102C80000846704702207047002804BF01207047A3
:102C900070B5044690F84100002520B984F84050F2
:102CA000204600F04DF8242084F841002068016897
:102CB00021F0010101606068216820F07060086106
:102CC0002068816821F400418160E0680128A068E3
:102CD0000CBF40F4004040F4044021688860E06884
:102CE0000228206841680CBF41F4006121F40061B2
:102CF00041602068416841F4004141F00071416049
:102D00002068C16821F40041C160D4E9040108438E
:102D1000A16940EA01202168C860D4E9070108439D
:102D2000216808602068016841F001010160656464
:102D3000202084F84100256384F84250002070BDB3
:102D400010B586B000210091019102910391049188
:102D50000068A0F18041B1F5A8411CBF06B010BDCC
:102D60000F4C606940F4802060616069694600F43E
:102D700080200590C0200090122001900320039035
:102D8000042004900748FFF74FFAE06940F4001070
:102D9000E061E06900F40010059006B010BD00008D
:102DA0000010024000040048024881680278114483
:102DB0008160704700000020074810B5016841F0AD
:102DC00010010160032000F081F80F2000F006F8E8
:102DD00000F024F8002010BD0020024070B50D4D19
:102DE00004464FF47A712878B1FBF0F00A4909687B
:102DF000B1FBF0F000F098FD48B9102C07D200228A
:102E00002146501E00F030F800206C6070BD01209B
:102E100070BD0000000000200C000020094881B0B7
:102E2000816941F001018161816901F00101009135
:102E3000C16941F08051C161C06900F080500090CB
:102E400001B07047001002400028B8BF704700F082
:102E50001F01012202FA01F14009800000F1E02087
:102E6000C0F8001170470000174B10B41B68C3F383
:102E70000223C3F1070CBCF1040F88BF4FF0040C10
:102E80001C1D072C34BF0023DB1E012404FA0CFC9C
:102E9000ACF1010C0CEA0101994004FA03F35B1E4A
:102EA0001A40114300284FEA0111A1BF00F1E020B0
:102EB00080F8001410BC704700F00F0000F1E02013
:102EC00080F8141D10BC70470CED00E0074900F0BD
:102ED00007000A684FF6FF031A4042EA002040F05C
:102EE000FD7040F080600860704700000CED00E06D
:102EF0002DE9F84F04460068644E4FF0000910F4C5
:102F0000803F7DD0F06910F0805F09D1F06940F01A
:102F10008050F061F0694FF0010900F0805000909E
:102F20005B4F386810F4807F13D1386840F48070AC
:102F30003860FFF76DFA0546386810F4807F08D1D5
:102F4000FFF766FA401B642858D8386810F4807F71
:102F5000F6D0306A10F4407055D0A18801F4407169
:102F6000814250D0306A012720F44071380490FA31
:102F7000A0F2B2FA82F2920002F1844202F58402D7
:102F8000C2F8007490FAA0F00022B0FA80F080003D
:102F900000F1844000F58400C0F80024316211F093
:102FA000010F30D0FFF734FA8046022541F2883A0B
:102FB00095FAA5F0B0FA80F040F04000B7EB501F52
:102FC00008BF30680AD095FAA5F0B0FA80F040F05A
:102FD0004000B5EB501F0CBF306A706A95FAA5F13E
:102FE000B1FA81F101F01F0107FA01F108420AD19B
:102FF000FFF70EFAA0EB08005045D9D9032000E0F6
:103000000EE0BDE8F88F306A616820F44070084334
:103010003062B9F1000F03D0F06920F08050F06108
:10302000207810F0010F05D0306BA16820F003006C
:1030300008433063207810F0200F05D0306BE16832
:1030400020F0100008433063207810F0800F05D086
:10305000F06A216920F4F8700843F062208810F4C7
:10306000805F05D0306B616920F480700843306365
:10307000208810F4804F05D0306BA16920F4805077
:10308000084330630020BDE8F88F000000100240C4
:1030900000700040002804BF012070472DE9F04770
:1030A000DFF8D88105460E46D8F8000000F007008A
:1030B000B0420CD2D8F8000020F007003043C8F826
:1030C0000000D8F8000000F00700B0427ED1287858
:1030D0006B4C10F0020F05D06068A96820F0F0007A
:1030E00008436060287810F0010F66D068680121FD
:1030F00001282FD0022843D0022292FAA2F3B3FA79
:1031000083F343F020035B090CBF636A236892FAE0
:10311000A2F2B2FA82F202F01F0291400B4261D099
:10312000616821F0030108436060FFF771F9074609
:103130006068696800F00C00B0EB810F18BF41F2C5
:1031400088393AD0FFF764F9C01B48452ED90320CF
:10315000BDE8F0874FF4003393FAA3F2B2FA82F29B
:1031600042F02002520914BF2268626A93FAA3F364
:10317000B3FA83F303F01F0399400A4232D0CFE73A
:103180004FF0007393FAA3F2B2FA82F242F02002F7
:10319000520914BF2268626A93FAA3F3B3FA83F365
:1031A00003F01F0399400A421CD0B9E760686968C0
:1031B00000F00C00B0EB810FC4D1D8F8000000F093
:1031C0000700B04211D9D8F8000000E00AE020F072
:1031D00007003043C8F80000D8F8000000F00700EE
:1031E000B04202D00120BDE8F087287810F0040F2B
:1031F00005D06068E96820F4E060084360602878E2
:1032000010F0080F06D06068296920F4605040EA89
:10321000C100606061681B4801F00C02042A17D0ED
:10322000082A15D1184AC1F38343D55CE26A174BCB
:1032300002F00F0211F4803F9A5C04BF1448A5FB12
:10324000000105D000231946FDF70EF8A0FB05018B
:103250006168F02292FAA2F201F0F001B2FA82F271
:10326000D1400C4A515CC8400B4908600B480068CB
:10327000FFF7B4FD0020BDE8F08700000020024009
:103280000010024000127A005667000866670008C6
:1032900000093D00766700080C00002004000020B3
:1032A00008480949006849684FF4E06292FAA2F2BE
:1032B00001F4E061B2FA82F2D140044A515CC840A4
:1032C000704700000C0000200010024086670008D4
:1032D00008480949006849684FF4605292FAA2F21E
:1032E00001F46051B2FA82F2D140044A515CC84004
:1032F000704700000C0000200010024086670008A4
:10330000114A5168114801F00C03042B08BF7047A3
:10331000082B18BF704710B5C1F3834C0C4BD26A11
:1033200013F80C4002F00F02103311F4803F9A5C46
:1033300002BF0848A4FB000110BD00231946FCF79A
:1033400093FFA0FB040110BD0010024000127A00A0
:103350005667000800093D00002804BF012070479F
:103360002DE9F84F04460078FF4D10F0010F4FF0A3
:10337000010626D06868770400F00C00042808D005
:10338000686800F00C00082860D1686810F4803F7D
:103390005CD097FAA7F0B0FA80F040F02000400926
:1033A00014BF2868686A97FAA7F1B1FA81F101F0B1
:1033B0001F0106FA01F1084203D06068002800F0FE
:1033C000AD8220784FF0000910F0020F4FF0020795
:1033D00078D068684FF0F80A10F00C0F73D0686866
:1033E00000F00C00082804BF686810F4803F6AD021
:1033F0002069002896FAA6F0B0FA80F04FEA800023
:1034000000F1844000F5840000F0EC800660FEF7D7
:10341000FFFF804697FAA7F0B0FA80F040F0200056
:10342000400914BF2868686A97FAA7F1B1FA81F1D8
:1034300001F01F0106FA01F108426ED1FEF7E8FF24
:10344000A0EB08000228E5D900F007BA6068B0F5E3
:10345000803F04BF286840F480300AD010B1B0F536
:10346000A02F31D0286820F480302860286820F40C
:1034700080202860E86AA16820F00F000843E86215
:10348000606848B3FEF7C4FF4FEA000897FAA7F058
:10349000B0FA80F040F02000400914BF2868686A44
:1034A00097FAA7F1B1FA81F101F01F0106FA01F1D3
:1034B000084286D1FEF7ACFFA0EB08006428E5D9EE
:1034C00000F0CBB94FE029E0286840F48020286064
:1034D000286840F48030CCE7FEF79AFF4FEA0008F6
:1034E00097FAA7F0B0FA80F040F02000400914BF2E
:1034F0002868686A97FAA7F1B1FA81F101F01F0113
:1035000006FA01F108423FF45CAFFEF781FFA0EB41
:1035100008006428E4D900F0A0B917E097FAA7F0F2
:10352000B0FA80F040F02000400914BF2868686AB3
:1035300097FAA7F1B1FA81F101F01F0106FA01F142
:1035400008421CBF2069012840F0E88128689AFAE7
:10355000AAF26169B2FA82F220F0F80001FA02F1EF
:1035600040EA01002860207810F0080F7DD0A069A3
:10357000002896FAA6F0B0FA80F04FEA800000F139
:10358000844000F584004FD0C0F88064FEF740FF0F
:103590004FEA000897FAA7F0B0FA80F040F0600018
:1035A000B6EB501F08BF28680AD097FAA7F0B0FA08
:1035B00080F040F06000B7EB501F0CBF286A686ACB
:1035C00097FAA7F1B1FA81F101F01F0106FA01F1B2
:1035D000084258D1FEF71CFFA0EB08000228D9D9F9
:1035E00000F03BB9C0F80090FEF712FF4FEA000868
:1035F00097FAA7F0B0FA80F040F02000400914BF1D
:103600002868686A97FAA7F1B1FA81F101F01F0101
:1036100006FA01F10842A6D0FEF7FAFEA0EB080078
:103620000228E5D900F019B9C0F88094FEF7F0FE41
:103630004FEA000897FAA7F0B0FA80F040F0600077
:10364000B6EB501F08BF28680AD097FAA7F0B0FA67
:1036500080F040F06000B7EB501F0CBF286A686A2A
:1036600097FAA7F1B1FA81F100E00CE001F01F0137
:1036700006FA01F1084206D0FEF7CAFEA0EB0800E8
:103680000228D7D9E9E0207810F0040F6BD0E86960
:103690004FF0000B10F0805F09D1E86940F08050D6
:1036A000E861E8694FF0010B00F080500090DFF80E
:1036B000BC80D8F8000010F4807F18D1D8F8000042
:1036C00040F48070C8F80000FEF7A2FE8246D8F8E9
:1036D000000010F4807F0AD1FEF79AFEA0EB0A00EA
:1036E00064284AD8D8F8000010F4807FF4D0E0684D
:1036F000012804BF286A40F0010009D008B105285C
:103700003CD0286A20F001002862286A20F00400DA
:103710002862E06841F2883A50B3FEF779FE8046AD
:1037200097FAA7F0B0FA80F040F04000B6EB501FD7
:1037300008BF28680AD097FAA7F0B0FA80F040F0E6
:103740004000B7EB501F0CBF286A686A97FAA7F1D0
:10375000B1FA81F101F01F0106FA01F1084240D1EE
:10376000FEF756FE05E043E0001002400070004006
:103770000CE0A0EB08005045D2D96EE0286A40F07A
:1037800004002862286A40F00100C1E7FEF740FE0D
:103790004FEA000897FAA7F0B0FA80F040F0400036
:1037A000B6EB501F08BF28680AD097FAA7F0B0FA06
:1037B00080F040F04000B7EB501F0CBF286A686AE9
:1037C00097FAA7F1B1FA81F101F01F0106FA01F1B0
:1037D000084206D0FEF71CFEA0EB08005045D9D9E0
:1037E0003BE0BBF1000F03D0E86920F08050E861B6
:1037F000E069A8B3696801F00C0108297FD04FF097
:103800008078022898FAA8F0B0FA80F04FEA800099
:1038100000F1844000F584004FF00077C0F800907C
:103820001FD0FEF7F5FD044697FAA7F0B0FA80F036
:1038300040F02000400914BF2968696A97FAA7F090
:10384000B0FA80F000F01F0006FA00F0014268D0E4
:10385000FEF7DEFD001B0228E6D90320BDE8F88F45
:103860005FE0FEF7D5FD814697FAA7F0B0FA80F049
:1038700040F02000400914BF2868686A97FAA7F151
:10388000B1FA81F101F01F0106FA01F1084206D0F8
:10389000FEF7BEFDA0EB09000228E5D9DDE7D4E97B
:1038A00008100843696821F474110843686098FAA5
:1038B000A8F0B0FA80F0800000F1844000F58400A8
:1038C0000660FEF7A5FD044697FAA7F0B0FA80F06F
:1038D00040F02000400914BF2868686A97FAA7F1F1
:1038E000B1FA81F101F01F0106FA01F1084218D185
:1038F000FEF78EFD001B0228E6D9AEE7FFE70128A0
:1039000008BFBDE8F88F6868226A00F480319142F0
:1039100004D1616A00F47010884202D00120BDE831
:10392000F88F0020BDE8F88F411EB1F1807F24BFE1
:10393000012070474FF0E0204161054AF02182F8F4
:10394000141D0021816107210161002070470000E2
:103950000FE000E0704770477047000090F83C208F
:10396000012A04BF0220704770B44FF0010C80F8A8
:103970003CC0022280F83D20026853689468144DD0
:10398000AA4203D14E6823F4700333430E6823F038
:103990007003334353600268AA4218BFB2F1804FEC
:1039A00009D0A2F18043B3F580631CBFA2F180432C
:1039B000B3F5A03304D1896824F0800319439160E2
:1039C00080F83DC0002180F83C1070BC084670476C
:1039D000002C0140002804BF0120704710B50446A8
:1039E00090F83D0028B9002084F83C00204600F003
:1039F00023F8022084F83D00211D206801F0C6FD57
:103A0000012084F8480084F83E0084F83F0084F8E0
:103A1000400084F8410084F8420084F8430084F8B0
:103A2000440084F8450084F8460084F8470084F890
:103A30003D00002010BD000008B501681348A1F149
:103A40008042B2F596320ED0A1F18042B2F580628A
:103A500018BF08BDC16941F00201C161C06900F031
:103A60000200009008BD816941F4006181618069B4
:103A7000002200F4006000900E211920FFF7F4F9F5
:103A8000BDE808401920FFF7DFB900000010024030
:103A900090F83D1001291CBF01207047022180F8D9
:103AA0003D100168CA6842F00102CA600068A0F1D6
:103AB0008041B1F5963118BFB0F1804F0FD0A0F121
:103AC0008041B1F580611CBFA0F18041B1F5A0310A
:103AD00005D0016841F00101016000207047816854
:103AE000034A1140062918BFB1F5803FF5D0F0E731
:103AF0000700010090F83C200023012A0DBF02209E
:103B00004FF0010C80F83CC0704770B4022280F87E
:103B10003D200268946824F0770424F4803424F46F
:103B20007F4494600A68502A43D00CDC202A75D068
:103B300004DC002A18BF102A0FD18BE0302A6DD088
:103B4000402A6DD009E0602A4DD0702A0ED0B2F51F
:103B5000805F03D0B2F5005F19D0012380F83DC02B
:103B6000002180F83C1070BC18467047D1E901452F
:103B70000268C968966844EA012126F47F46294311
:103B80003143916001688A6842F077020FE0D1E921
:103B900001450268C968966844EA012126F47F4617
:103BA00029433143916001688A6842F480428A6007
:103BB000D4E702684C68C968156A166A26F00106DF
:103BC0001662966925F00A0526F0F00646EA01110C
:103BD0002C439161146201688A6822F0700242F0FD
:103BE00057028A60BAE702684C68C968156A166AA3
:103BF00026F010061662966925F0A00526F4704698
:103C000046EA013145EA04149161146201688A6848
:103C100022F0700242F067028A609FE71AE0FFE735
:103C200002684C68C968156A166A26F001061662B1
:103C3000966925F00A0526F0F00646EA01112C43A4
:103C40009161146201688A6822F0700242F04702B2
:103C50008A6083E701688C6824F07004224342F094
:103C600007028A607AE770472DE9F0410446006850
:103C7000C66805694FF0000715F0020F18BF16F06F
:103C8000020F13D06FF0020101610120207720683C
:103C9000806910F0030F204602D0FFF7E4FF04E034
:103CA00000F099F8204600F05FFA277715F0040F2E
:103CB00018BF16F0040F14D021686FF004000861DB
:103CC000022020772068806910F4407F204602D0CF
:103CD000FFF7C9FF04E000F07EF8204600F044FA48
:103CE000277715F0080F18BF16F0080F14D02168B9
:103CF0006FF008000861042020772068C06910F088
:103D0000030F204602D0FFF7AEFF04E000F063F897
:103D1000204600F029FA277715F0100F18BF16F08B
:103D2000100F14D021686FF0100008610820207770
:103D30002068C06910F4407F204602D0FFF793FF4F
:103D400004E000F048F8204600F00EFA277715F05E
:103D5000010F18BF16F0010F06D021686FF00100A7
:103D60000861204600F001FA15F0800F18BF16F028
:103D7000800F06D021686FF0800008612046FFF7B1
:103D8000EAFD15F4807F18BF16F0800F06D0216879
:103D90006FF4807008612046FFF7DCFD15F0400FDE
:103DA00018BF16F0400F06D021686FF04000086180
:103DB000204600F0DBF915F0200F14BF16F0200F9D
:103DC000BDE8F0816FF02000216808612046BDE861
:103DD000F041FFF7C1BD70472DE9F047054690F867
:103DE0003C0000260C4601280DBF0220012085F86A
:103DF0003C00BDE8F087BF4BDFF8FCC2BF4FC049B5
:103E00000C2A00F0C18005DC8AB1042A5FD0082AA0
:103E100072D005E0102A00F0F480142A00F02D8101
:103E20000126002085F83C003046BDE8F087286870
:103E3000D0F82080026A22F0010202624268D0F8C3
:103E40001890D4F800A029F0730929F480394AEABF
:103E50000909D4F808A028F002084AEA08088842AC
:103E600018BF984203D0604518BFB84207D1D4F8B4
:103E70000CA028F008084AEA080828F0040888423C
:103E800018BF984203D0604518BFB84207D122F44A
:103E90004071626942EA0101A26942EA010242609C
:103EA000C0F8189061684163C0F820802868816973
:103EB00041F0080181612868816921F00401816174
:103EC00028688169226941EA02018161A9E72146E6
:103ED000286801F0AFFB2868816941F400618161C5
:103EE0002868816921F4806181612868816922697B
:103EF00041EA0221E9E7FFE72868026AD0F820805A
:103F000028F48078C0F82080D0F80480D0F81C9085
:103F1000D4F800A029F0730929F480394AEA090984
:103F2000D4F808A022F4007242EA0A22884207D19B
:103F300022F40061E26841EA022121F4806204E097
:103F400098421CBF6045B84207D1636928F44051CC
:103F500041EA0311A36941EA0318C0F80480C0F8DC
:103F60001C906168C16302622868C16941F0080160
:103F7000C1612868C16921F00401C1612868C16973
:103F8000226941EA02013AE02868D0F82090026AEA
:103F900022F4805202624268D0F81C80D4F800A05B
:103FA00028F4E64828F0807848EA0A28D4F808A0DF
:103FB00029F4005949EA0A39884218BF984203D0C7
:103FC000604518BFB84204D122F48041626941EAD9
:103FD00082124260C0F81C8061680164C0F82090C1
:103FE0002868C16941F40061C1612868C16921F490
:103FF0008061C1612868C169226941EA0221C16109
:104000000FE72868D0F82090026A22F4803202621A
:104010004268D0F85480D4F800A028F0700828F442
:1040200080384AEA0808B4F808A029F4003949EAB7
:104030000A49884218BF984203D0604518BFB84269
:1040400004D122F48031626941EA02224260C0F860
:10405000548061688165C0F820902868416D41F006
:10406000080141652868416D21F004014165286817
:10407000416D226941EA02013AE02868D0F82090B7
:10408000026A22F4801202624268D0F85480D4F8A6
:1040900000A028F4E04828F0807848EA0A28B4F81C
:1040A00008A029F4001949EA0A59884218BF984221
:1040B00003D0604518BFB84204D122F48021626960
:1040C00041EA82224260C0F854806168C165C0F84C
:1040D00020902868416D41F4006141652868416D78
:1040E00021F4806141652868416D226941EA02211D
:1040F000416596E60040014000440140004801400F
:10410000002C0140002804BF0120704710B5044670
:1041100090F83D0028B9002084F83C00204600F0CB
:1041200022F8022084F83D00211D206801F02EFABB
:10413000012084F8480084F83E0084F83F0084F8A9
:10414000400084F8410084F8420084F8430084F879
:10415000440084F8450084F8460084F8470084F859
:104160003D00002010BD7047704770477047002821
:1041700004BF0120704710B50446C06F28B9002065
:1041800084F87800204600F027F82420E0672068B3
:10419000016821F001010160606A00281CBF20460F
:1041A00001F088FA204601F04FFB012808BF10BD3E
:1041B0002068416821F4904141602068816821F0C5
:1041C0002A0181602068016841F0010101602046F8
:1041D000BDE8104001F0DBBA00B587B000210091C6
:1041E00001910291039104910068A0F18041B1F521
:1041F00088411CBF07B000BD0F48C16941F40031C0
:10420000C161C16901F400310591416941F4802126
:1042100041614069694600F48020059018200090B3
:104220000220019003200390072004900348FDF72B
:10423000FBFF07B000BD0000001002400004004872
:104240002DE9F8430446C06F1F4615460E46202848
:104250001CBF0220BDE8F883002E12BF002D0120F4
:10426000BDE8F8834FF00000C4F884004FF021004F
:10427000E067FEF7CDF8A4F850508046A4F85250FD
:10428000A068B0F5805F07BF20690028354600268A
:1042900008BF0025B4F852004FF02009B8B14346DA
:1042A0004FF000024FF080012046009701F06EFBB6
:1042B000D8B9FDB1216815F8010B0885B4F8520092
:1042C000401EA4F85200B4F852000028E7D143463B
:1042D000002240212046009701F058FB002802BF31
:1042E000C4F87C900020BDE8F883C4F87C900320DB
:1042F000BDE8F88336F8020B2168C0F30800088592
:10430000DCE700004FF4E0210148FEF7BEBA0000F0
:10431000900100202DE9F001E425046805EBC116A9
:104320004FF0000CA759B82505EBC1156559202A97
:1043300027D00CDC042A15D004DC012A12D0022A72
:104340001FD02FE0082A1CD0102A0BD02AE0402AC8
:1043500008D0802A15D0B2F5807F03D0B2F5007F57
:104360000FD01FE04FF0BC0808EBC1185A6844F8A2
:1043700008204FF0C008046808EBC1119A68625029
:1043800010E04FF0C40C0CEBC11C5A6844F80C2030
:10439000C824D0F800C004EBC1119A684CF8012081
:1043A0004FF0100CFE211A6801FA0CF127EA010106
:1043B00002FA0CF21143DA6802FA0CF211431A699C
:1043C00002FA0CF421435C6904FA0CF421439C6961
:1043D00004FA0CF42143082A04BF15F4007F15F0F9
:1043E000007F04D1DA6902FA0CF242EA01010068A6
:1043F0008151BDE8F0017047FEE700000F4810B59D
:104400000F4BC26C00210F489A42A4BF018010BD1F
:10441000028841F28833521C92B202809A4238BF1D
:1044200010BD018000224FF480514FF09040FDF705
:10443000EAFF0549042081F8240110BD6004002032
:1044400000009041380000204C0700201B4910B5A7
:1044500091ED200AD1ED350A194CB4EEE00AF1EEE7
:1044600010FA0CD200224FF480512046FDF7CBFF0A
:1044700020460122BDE810405103FDF7C4BF0CDD0A
:1044800000224FF400512046FDF7BDFF20460122D7
:10449000BDE810401103FDF7B6BF91F824010428D0
:1044A00018BF10BD012251032046FDF7ACFF204686
:1044B0000122BDE810401103FDF7A5BF4C07002005
:1044C000000400484FF400414FF09040FDF793BFC7
:1044D000F0B589B000242A48069407940894009403
:1044E00001940294039404944FF0A0410594C0E910
:1044F0000014012505618460457680F82040C0E9FC
:104500000A540326C661C46080F83050042141611A
:1045100004764463FCF79EFF002818BFFCF7E4FC18
:1045200006A917480694FCF73DFD002818BFFCF7C4
:10453000DBFC02270620CDE902040594CDE90075D5
:10454000049469460E48FCF7C1FD002818BFFCF72B
:10455000CBFC6946CDE900570948FCF7B7FD0028B8
:1045600018BFFCF7C1FC0096694605480196FCF7A8
:10457000ADFD002818BFFCF7B7FC09B0F0BD000086
:104580004000002070B586B00024264800940194B5
:1045900002940394049422490594C0E9001401256F
:1045A00005618460457680F82040C0E90A540326FE
:1045B000C661C46080F830500421416104764463D0
:1045C000FCF748FF002818BFFCF78EFC0F20CDE950
:1045D00000050620CDE902040494694611480594BB
:1045E000FCF774FD002818BFFCF77EFC0E2000903D
:1045F0000220019069460B48FCF768FD002818BFAF
:10460000FCF772FC1220CDE9000669460548FCF76C
:104610005DFD002818BFFCF767FC06B070BD000008
:1046200000010050900000200D4810B50B490160BA
:104630001021416000218160C1600161416101760A
:1046400041768176C17601774177FDF711FC00282C
:1046500008BF10BDBDE81040FCF746BC0064004038
:1046600068010020054881B0416941F001014161C4
:10467000406900F00100009001B070470010024056
:10468000F0B587B00024414800940194029403944B
:104690000494416941F400214161416901F4002120
:1046A0000591416941F480014161416901F4800152
:1046B0000591416941F400314161416901F40031E2
:1046C0000591416941F4802141614069304F00F416
:1046D0008020059000224FF480613846FDF793FE5C
:1046E00001224FF440513846FDF78DFE00224FF471
:1046F00080514FF09040FDF786FE0122D1034FF02C
:104700009040FDF780FE4FF460400326CDE900069F
:10471000694602941F48FDF787FD3820CDE9000661
:10472000694602944FF09040FDF77EFDC020CDE930
:1047300000040125694602954FF09040FDF774FD95
:104740002520CDE90006694602943846FDF76CFD48
:104750004FF450500090CDE9015469463846039417
:10476000FDF762FDE802CDE900046946029538468E
:10477000FDF75AFDF8130090CDE901546946C003D6
:104780000394FDF751FD07B0F0BD0000001002409A
:1047900000040048000800482DE9F041B4B00024AE
:1047A000289429942A94542168462B94FBF7D3FD2E
:1047B0002C942D942E9420942194994D1E941F9402
:1047C0002294259426942394249416941794189450
:1047D00019941A941B941C94904E1D94C5E900647E
:1047E0002846AC60FDF7AAFE002818BFFCF77CFB4A
:1047F0000C218B48FDF712FE002818BFFCF774FB54
:104800000A218748FDF712FF002818BFFCF76CFB50
:104810004FF4B450CDE9280402270820CDE92A70CE
:1048200028AA05217E48FDF728FF002818BFFCF7BD
:104830005BFB0094019401200294CDE903400594B0
:1048400006940794089409940A940B946A460521E7
:1048500073480C94FEF782F8002818BFFCF744FB5D
:104860004FF47A702C902CAB012205216C48FDF797
:104870004DFF002818BFFCF737FB2CAB02220521A7
:104880006748FDF743FF002818BFFCF72DFB2CAB52
:10489000042205216248FDF739FF002818BFFCF704
:1048A00023FB2CAB082205215D48FDF72FFF0028D4
:1048B00018BFFCF719FB28AA00215948FDF7DDFEB7
:1048C000002818BFFCF710FB00944FF0006009901F
:1048D0008000CDE90C0401944FF480780E94CDE96A
:1048E0000F481194129413946A4600214C48149472
:1048F000FEF734F8002818BFFCF7F6FA6A460121E3
:104900004748FEF72BF8002818BFFCF7EDFA0A20FD
:104910004FF40041CDE92041CDE91E404910CDE9D9
:1049200022108007CDE92440400826901EAA0021CD
:104930003B48FDF7ADFD002818BFFCF7D5FA1EAACD
:1049400001213748FDF7A4FD002818BFFCF7CCFA79
:104950004FF40070CDE91648CDE918041A941B9461
:104960001C9416AB012200212D481D94FDF7A6FFD3
:10497000002818BFFCF7B8FA4FF480601790400089
:10498000189016AB042201212548FDF797FF002857
:1049900018BFFCF7A9FA179416AB02220021204891
:1049A0001894FDF78BFF002818BFFCF79DFA16AB93
:1049B000082201211A48FDF781FF002818BFFCF7E3
:1049C00093FA28AA01211648FDF757FE002818BFC0
:1049D000FCF78AFA2F9430943194329433942868F7
:1049E000B0421CBF34B0BDE8F0810E48416941F4CB
:1049F0000031416140692FA900F4003015904FF457
:104A00007060CDE92F07032032900D2033904FF0D6
:104A10009040FDF709FC34B0BDE8F081007401401E
:104A20009001002000100240144810B512490160A6
:104A30001349416000210122C0E902120161416174
:104A40008161C1610162FEF71FF9002818BFFCF700
:104A50004BFA00210948FEF7C3F8002818BFFCF7FD
:104A600043FA00210548FEF7E6F8002808BF10BD0C
:104A7000BDE81040FCF738BA005400406C0200203A
:104A80000E09002010B588B000241B480594069438
:104A9000079404940094019416490294C0E9001408
:104AA00040F25721C0E9024180210461C0E905417B
:104AB000FEF790FF002818BFFCF716FA4FF480505D
:104AC000049004A90C48FFF715F8002818BFFCF75C
:104AD0000BFA102000904FF4A000CDE901046946C4
:104AE0000548FEF73BFF002818BFFCF7FDF908B0AA
:104AF00010BD0000002C0140C0020020F0B595B0B0
:104B000000240C940D940F941094334D0E94119432
:104B1000129400940194029403940494059440F632
:104B20005F100694C5E9024080202C61A861294FDE
:104B30000226C5E900762846FEF74CFF002818BF7C
:104B4000FCF7D2F94FF480500C900CA92248FEF7E4
:104B5000D1FF002818BFFCF7C7F91F48FFF7D2FAAA
:104B6000002818BFFCF7C0F9109410A91A48129435
:104B7000FEF7F4FE002818BFFCF7B6F9602000909D
:104B80004FF4E160CDE901040C2269461248049417
:104B9000FFF722F9002818BFFCF7A6F9079408943C
:104BA00009940A940B942868B8421CBF15B0F0BD54
:104BB0000A48416941F4802141614069079600F447
:104BC00080201390089607A90B960548FDF72CFB4B
:104BD00015B0F0BD000400400C030020001002409E
:104BE000000400480D4810B50B4901604FF4E13155
:104BF0004160002181600C22C160C0E90412816122
:104C0000C16101624162FFF7B2FA002808BF10BD1E
:104C1000BDE81040FCF768B900440040580300208C
:104C2000FEE7000030B42E480122014690F82431FE
:104C3000D1F818114FF0020C41F27244012B26D02A
:104C4000022B2CD0042B43D1B0F84011491C89B25F
:104C5000A0F84011052924BF0521A0F8401137D242
:104C600020499FED220AD1ED130A1F4991ED131A35
:104C700021EE000AF4EEC00AF1EE10FA26D3F4EEAB
:104C8000C00AF1EE10FA23DB80F824C120E0B0F96D
:104C90002651A542A4BF164C8C4219DBF4E790EDD7
:104CA000420ADFF83CC0B5EEC00ABCF928C1F1EEFB
:104CB00010FA09DD0F4D29440F4DA94204D240F6E8
:104CC00072318C4504DC01E0A44501DB80F824212D
:104CD00090F82411994218BF80F82E2130BC7047FB
:104CE0004C070020E005002060040020CDCC4C3FA4
:104CF0006666663F999999C033333300FEE700003A
:104D00002DE9F047C94C2DED068B94F82E0150B1DA
:104D100004F1540000F00CFA04F1A80000F008FAC5
:104D2000204600F005FA94F824014FF00008DFED6A
:104D3000C09A9FEDC09ADFEDC08A9FEDC0AA9FED9B
:104D4000C08ADFF80093C04DC04F41F2724601287F
:104D500018D002287DD0032800F02C81042840F0D0
:104D6000528104F1540000F0E3F904F1A80000F0CE
:104D7000DFF9AE4800F0DCF90F21B548FDF7D4FDAE
:104D800000F041B994F82E0128B3B0EE693AF0EE84
:104D9000492AB0EE682AF0EE4A1AB0EE481AF7EE49
:104DA000000AB0EE000A04F1540000F0DFF9B0EEA2
:104DB000693AF0EE492AB0EE682AF0EE4A1AB0EEEF
:104DC000481AF7EE000AB0EE000A04F1A80000F05D
:104DD000CDF984F82E81D4ED420A95ED040A04F150
:104DE000540000F045F997ED130AD9ED010A04F1DA
:104DF000A80000F03DF96869D4ED200AB0F17C5FAD
:104E000006DD94ED350AF4EEC00AF1EE10FA0ED28A
:104E1000B4F92A0100EE100AB8EEC00A30EE800A9A
:104E2000BDEEC00A10EE100AA4F826010DE0B4F998
:104E30002A0100EE900AF8EEE00A30EE200ABDEEFC
:104E4000C00A10EE100AA4F82601B4F92601B042F7
:104E500000E023E0C8BFA4F82661B4F9261140F2AF
:104E600072208142B8BFA4F826012869B0F17C5FA6
:104E70000FDA7848D7ED1F0A90ED1F1A80EE810AED
:104E800010EE100AB0F1785FBCBF4FF43470A4F894
:104E9000260141F29250A4F82801B4E094F82E01C2
:104EA00058B3B0EE693A9FED6C9AB0EE682AF0EE16
:104EB000492A9FED6AAAB0EE481AF0EE040AF0EE15
:104EC0004A1ADFED67AA04F15400B0EE6A0A00F056
:104ED0004DF9B0EE693AF0EE492AB0EE682AF0EEEC
:104EE0004A1AB0EE481AF0EE040AB0EE6A0A04F16B
:104EF000A80000F03BF984F82E81D4ED420A95ED2C
:104F0000040A04F1540000F0B3F897ED130AD9ED48
:104F1000010A04F1A80000F0ABF86869B0F17C5F09
:104F200024DDD4ED200A94ED350AB4F92C01F4EE19
:104F3000C00AF1EE10FA0CD200EE100AB8EEC00A68
:104F400030EE600ABDEEC00A10EE100AA4F8280187
:104F50001CE000EE900AF8EEE00A30EEC00ABDEE6A
:104F6000C00A10EE100AA4F828010FE0B4F92C01D1
:104F7000D4ED200A00EE100AB8EEC00A30EE600A46
:104F8000BDEEC00A10EE100AA4F82801B4F92801F9
:104F9000B042C8BFA4F82861B4F9281140F67230B5
:104FA0008142B8BFA4F8280140F6B250A4F8260107
:104FB00029E000BF94F82E0128B3B0EE693AF0EE74
:104FC000492AB0EE682AF0EE4A1AB0EE481AF0EE1E
:104FD000040AB0EE000A04F1540000F0C7F8B0EE85
:104FE000693AF0EE492AB0EE682AF0EE4A1AB0EEBD
:104FF000481AF0EE040AB0EE000A04F1A80000F02E
:10500000B5F884F82E811749192008601649086000
:10501000B4F92601091F19300860B4F928011349B1
:1050200019300860BDEC068BBDE8F0874C07002006
:10503000000048C3000090C50000484300009045B0
:105040000AD7233C38000020E0060020E0050020BD
:105050009001002060040020000010C500001045F1
:10506000CDCC0C401C740140287401402C740140CC
:10507000D0ED131AC0ED141A90ED121A80ED131A28
:10508000C0ED090A80ED0A0A30EEC00A80ED120A6E
:1050900070EE410A90ED012A60EE820AC0ED0C0A22
:1050A00090ED022A22EE002A80ED0D2AD0ED102A82
:1050B00070EE820AC0ED112AD0ED0F2AC0ED102A41
:1050C000F0EE002A01EE620A30EE210A80ED0F0AAE
:1050D00090ED031A21EE000A80ED0E0A30EE800AF0
:1050E000D0ED0B0A30EE200A80ED0B0AD0ED060A57
:1050F000B4EEE00AF1EE10FAD8BFB0EE600A80ED2F
:105100000B0AD0ED050AB4EEE00AF1EE10FAC8BFC2
:10511000B0EE600A06DCB1EE601AB4EEC10AF1EE40
:1051200010FA02D380ED0B0A7047B1EE600AF9E77E
:105130009FED0D0A80ED140A80ED130A80ED120A2E
:1051400080ED110A80ED100A80ED0F0A80ED0E0A45
:1051500080ED0D0A80ED0C0A80ED0B0A80ED090A46
:1051600080ED0A0A704700000000000080ED010A8F
:10517000C0ED020A80ED031AC0ED051A80ED072A82
:10518000C0ED062A9FED0C0A80ED083A80ED110A69
:1051900080ED100A80ED0F0A80ED0B0A80ED0E0AFB
:1051A00080ED0D0A80ED0C0A80ED140A80ED130AE3
:1051B00080ED120A704700000000000070470000F8
:1051C0002DE9F0470120FDF71BF89B4C9B4D9C4EB1
:1051D000DFF870829C4F4FF0000900BF04EB4901DB
:1051E000B4F84800A1F8500005EB4901B5F84800B3
:1051F000A1F8500006EB4901B6F84800A1F85000AC
:1052000008EB4901B8F84800A1F8500007EB490144
:10521000B7F84800A1F850000120FCF7F1FF09F1B0
:105220000109B9F1080FD9DB082104F1500000F0A1
:105230007DFD84ED1E0A082105F1500000F076FD89
:1052400085ED1E0A082106F1500000F06FFD86ED85
:105250001E0A082108F1500000F068FD88ED1E0AC2
:10526000082107F1500000F061FD87ED1E0A94ED62
:105270001E0ABCEEC00A10EE100A81B26E48FBF79F
:105280005DFC84ED1F0A95ED1E0ABCEEC00A10EE0F
:10529000100A81B26948FBF751FC85ED1F0A96EDB3
:1052A0001E0ABCEEC00A10EE100A81B26448FBF779
:1052B00045FC86ED1F0A98ED1E0ABCEEC00A10EEF2
:1052C000100A81B25F48FBF739FC88ED1F0A97EDA1
:1052D0001E0ABCEEC00A10EE100A81B25A48FBF753
:1052E0002DFC87ED1F0AE06FDFF86091A0F1804090
:1052F000A0F1D0704FF0040AB0F5800F08D989F8FA
:1053000024A100224FF480514FF09040FDF77BF82C
:10531000E86FB0F17C5FDFBFF06FB0F17C5FF86FDA
:10532000B0F17C5F08DD89F824A100224FF48051A0
:105330004FF09040FDF767F8D8ED1F0A94ED1F1A63
:10534000434A41F2724180EE810A10EE100A89ED63
:10535000460A904228DC0120DFED3E0A89F824014C
:1053600041F2925220EE200A40F27223BDEEC00AB2
:1053700010EE100A00B2A9F82A01A9F82601A9F82E
:105380002C219842B8BFA9F82631B9F926018842E4
:10539000C8BFA9F82611A9F82821012211034FF04E
:1053A0009040FDF730F832E010EE100A2A4A10441F
:1053B0002A4A904222D20220DFED290A89F82401EC
:1053C00040F6B25280EE801AA9F82621BDEEC10A3D
:1053D00010EE100A00B2A9F82C01A9F82A2140F613
:1053E0007232A9F828019042B8BFA9F82821B9F96A
:1053F00028018842C8BFA9F82811CEE789F824A15E
:1054000000224FF480514FF09040FCF7FCFF15490B
:105410001920086014490860B9F92601091F1930DC
:105420000860B9F92801114919300860BDE8F04752
:105430000F210F48FDF75EBA60040020E003002052
:10544000E0040020E0050020600500204C0700205B
:105450006666663F0090AC45999999C03333330036
:1054600000205B451C740140287401402C740140ED
:10547000900100207047FDF797BC000030B597B051
:10548000002412941694039403200A940B940E940F
:105490000294089001211394149415940C91009493
:1054A000019404944FF480301021059406940990DF
:1054B00002250D91CDE90F504FF4E010119008A88E
:1054C000FDF74AFF18B172B6FEF7C0FFFCE70F20E8
:1054D000CDE912054FF48060CDE91440022112A8F5
:1054E0001694FDF7D7FD20B172B600BFFEF7AEFFF0
:1054F000FCE745F2A00000904FF48070CDE9034036
:105500000001CDE905406846FDF7F2FC002804BF24
:1055100017B030BD72B600BFFEF798FFFCE7000081
:105520000248016841F470010160704788ED00E0B5
:1055300070B51348FEF798FB124C2068401C2060A1
:10554000FBF77AF8104D002695F82F01012805D1B8
:10555000FFF768FBFFF7D4FB85F82F61FEF74EFFDE
:1055600020684FF4967190FBF1F201FB12000028C5
:1055700018BF70BD2660BDE8704000F0ADBA0000F5
:10558000C0020020180000204C07002070B4026800
:10559000234B244E98421CBFB0F1804FB04205D13E
:1055A000D1F804C022F070024CEA0202DFF878C0A1
:1055B0001E4C1F4D984218BFB0F1804F07D0B0422B
:1055C00018BF604503D0A04218BFA84204D1CE68DE
:1055D00022F4407246EA02024E6922F0800242EA58
:1055E000060202608A68C2620A688262984218BF34
:1055F000604503D0A04218BFA84201D109690163E8
:105600004FF001014161016911F0010F04BF70BC4D
:105610007047016921F00101016170BC7047000011
:10562000002C0140000400400040014000440140C3
:105630000048014010B4026A036A23F010030362B9
:105640004368D0F818C00C682CF4E64C2CF0807C31
:105650004CEA042C8C6822F0200242EA0412A0F1E9
:105660008044B4F596340ED0A0F18044B4F5A03453
:105670001FBFA0F18044B4F5A234A0F18044B4F57A
:10568000A43407D00EE0CC6822F0800242EA041273
:1056900022F040024C6923F4406343EA84038C699E
:1056A00043EA84034360C0F818C04968816302621A
:1056B00010BC704790F8241011F0080F06D0016854
:1056C0004A68436B22F400421A434A6090F824105F
:1056D00011F0010F06D001684A68836A22F4003293
:1056E0001A434A6090F8241011F0020F06D00168A6
:1056F0004A68C36A22F480321A434A6090F8241040
:1057000011F0040F06D001684A68036B22F480226E
:105710001A434A6090F8241011F0100F06D0016867
:105720008A68836B22F480521A438A6090F82410AE
:1057300011F0200F06D001688A68C36B22F4005272
:105740001A438A6090F8241011F0400F11D00168BC
:105750004A68036C22F480121A434A60016CB1F566
:10576000801F06D101684A68436C22F4C0021A43C4
:105770004A6090F8241011F0800F08BF704701684C
:105780004A68806C22F400221043486070472DE97B
:10579000F84300250446C0F88450FCF739FE8046E3
:1057A000206800684FF0200610F0080F6FF07E4769
:1057B00016D04346002231042046009700F0E6F858
:1057C00070B1216851E8000F20F0800041E800022C
:1057D000002AF6D1E66784F878500320BDE8F88304
:1057E0002068006810F0040F23D0434600224FF4D5
:1057F00080012046009700F0C9F8D0B1216851E837
:10580000000F20F4907041E80002002AF6D12068D1
:1058100000F1080151E8000F20F0010041E800020A
:10582000002AF4D1C4F8806084F878500320BDE8E1
:10583000F883E667C4F880602566656684F878506A
:105840000020BDE8F883000070B504468068216937
:10585000E2690843616900251143084321680A6829
:10586000474B1A401043086020684168E26821F401
:10587000405111434160216AA069084321688A6848
:1058800022F43062104388602068A0F18041B1F5B5
:105890009C310AD0A0F18041B1F588411CBFA0F134
:1058A0008041B1F5904122D010E03648006B10F0F5
:1058B00003001CD0012808BF042108D0022808BF1B
:1058C000082104D0032808BF022100D01021E2697A
:1058D0002D484FF6EF76B2F5004F0AD0092942D293
:1058E000DFE801F02F3238413541414143000021CA
:1058F000EDE7092937D2DFE801F005080E360B364F
:1059000036362100FDF7CCFC04E0FDF7E1FC01E0B8
:10591000FDF7F6FC40B34100606801EB5001B1FBBC
:10592000F0F0A0F11001B1421DD84FF6F071014026
:10593000C0F3420008432168C8601CE04FF40040F7
:10594000E9E7FDF7ADFC04E0FDF7C2FC01E0FDF77F
:10595000D7FC48B1616800EB5100B0FBF1F0A0F159
:105960001001B14204D9012505E04FF40040F1E7F0
:10597000216880B2C8600020A066E066284670BD3D
:10598000F369FFEF0010024000127A002DE9F047A2
:1059900004460068089E9A46C06917460D4631EADB
:1059A00000000CBF01200020B84204BF4FF00008E7
:1059B0004FF020097ED100BFB6F1FF3F7ED0FCF74B
:1059C00027FDA0EB0A00B04227D836B32068016853
:1059D00011F0040F1CBF802D402D6FD0C16911F054
:1059E000080F33D04FF008020262216851E8000F1F
:1059F00020F4907041E80003002BF6D1206800F1FC
:105A0000080151E8000F20F0010041E80003002BDD
:105A1000F4D1206E01280CD102E00320BDE8F0870C
:105A2000216851E8000F20F0100041E80003002B2E
:105A3000F6D1C4F88090C4F86080C4F86880C4F8D7
:105A4000842084F878800120BDE8F087C06910F4D4
:105A5000006F33D021684FF400600862216851E87C
:105A6000000F20F4907041E80002002AF6D120686F
:105A700000F1080151E8000F20F0010041E80002A8
:105A8000002AF4D1206E012808D1206850E8001FB8
:105A900021F0100140E80012002AF6D1C4F88090ED
:105AA000C4F86080C4F88490C4F8688084F8788072
:105AB000032001E00CE001E0BDE8F0872068C06948
:105AC00035EA00000CBF01200020B8423FF474AF5B
:105AD0000020EEE7FEE7000000B589B067200090E7
